{
  "_format": "hh-sol-artifact-1",
  "contractName": "MyEpicNFT",
  "sourceName": "contracts/MyEpicNFT.sol",
  "abi": [
    {
      "inputs": [],
      "stateMutability": "nonpayable",
      "type": "constructor"
    },
    {
      "anonymous": false,
      "inputs": [
        {
          "indexed": true,
          "internalType": "address",
          "name": "owner",
          "type": "address"
        },
        {
          "indexed": true,
          "internalType": "address",
          "name": "approved",
          "type": "address"
        },
        {
          "indexed": true,
          "internalType": "uint256",
          "name": "tokenId",
          "type": "uint256"
        }
      ],
      "name": "Approval",
      "type": "event"
    },
    {
      "anonymous": false,
      "inputs": [
        {
          "indexed": true,
          "internalType": "address",
          "name": "owner",
          "type": "address"
        },
        {
          "indexed": true,
          "internalType": "address",
          "name": "operator",
          "type": "address"
        },
        {
          "indexed": false,
          "internalType": "bool",
          "name": "approved",
          "type": "bool"
        }
      ],
      "name": "ApprovalForAll",
      "type": "event"
    },
    {
      "anonymous": false,
      "inputs": [
        {
          "indexed": false,
          "internalType": "address",
          "name": "sender",
          "type": "address"
        },
        {
          "indexed": false,
          "internalType": "uint256",
          "name": "tokenId",
          "type": "uint256"
        }
      ],
      "name": "NewEpicNFTMinted",
      "type": "event"
    },
    {
      "anonymous": false,
      "inputs": [
        {
          "indexed": true,
          "internalType": "address",
          "name": "from",
          "type": "address"
        },
        {
          "indexed": true,
          "internalType": "address",
          "name": "to",
          "type": "address"
        },
        {
          "indexed": true,
          "internalType": "uint256",
          "name": "tokenId",
          "type": "uint256"
        }
      ],
      "name": "Transfer",
      "type": "event"
    },
    {
      "inputs": [
        {
          "internalType": "address",
          "name": "to",
          "type": "address"
        },
        {
          "internalType": "uint256",
          "name": "tokenId",
          "type": "uint256"
        }
      ],
      "name": "approve",
      "outputs": [],
      "stateMutability": "nonpayable",
      "type": "function"
    },
    {
      "inputs": [
        {
          "internalType": "address",
          "name": "owner",
          "type": "address"
        }
      ],
      "name": "balanceOf",
      "outputs": [
        {
          "internalType": "uint256",
          "name": "",
          "type": "uint256"
        }
      ],
      "stateMutability": "view",
      "type": "function"
    },
    {
      "inputs": [
        {
          "internalType": "uint256",
          "name": "tokenId",
          "type": "uint256"
        }
      ],
      "name": "getApproved",
      "outputs": [
        {
          "internalType": "address",
          "name": "",
          "type": "address"
        }
      ],
      "stateMutability": "view",
      "type": "function"
    },
    {
      "inputs": [],
      "name": "getTotalNFTsMintedSoFar",
      "outputs": [
        {
          "internalType": "uint256",
          "name": "",
          "type": "uint256"
        }
      ],
      "stateMutability": "view",
      "type": "function"
    },
    {
      "inputs": [
        {
          "internalType": "address",
          "name": "owner",
          "type": "address"
        },
        {
          "internalType": "address",
          "name": "operator",
          "type": "address"
        }
      ],
      "name": "isApprovedForAll",
      "outputs": [
        {
          "internalType": "bool",
          "name": "",
          "type": "bool"
        }
      ],
      "stateMutability": "view",
      "type": "function"
    },
    {
      "inputs": [],
      "name": "makeAnEpicNFT",
      "outputs": [],
      "stateMutability": "nonpayable",
      "type": "function"
    },
    {
      "inputs": [],
      "name": "name",
      "outputs": [
        {
          "internalType": "string",
          "name": "",
          "type": "string"
        }
      ],
      "stateMutability": "view",
      "type": "function"
    },
    {
      "inputs": [
        {
          "internalType": "uint256",
          "name": "tokenId",
          "type": "uint256"
        }
      ],
      "name": "ownerOf",
      "outputs": [
        {
          "internalType": "address",
          "name": "",
          "type": "address"
        }
      ],
      "stateMutability": "view",
      "type": "function"
    },
    {
      "inputs": [
        {
          "internalType": "uint256",
          "name": "tokenId",
          "type": "uint256"
        }
      ],
      "name": "pickRandomColor",
      "outputs": [
        {
          "internalType": "string",
          "name": "",
          "type": "string"
        }
      ],
      "stateMutability": "view",
      "type": "function"
    },
    {
      "inputs": [
        {
          "internalType": "uint256",
          "name": "tokenId",
          "type": "uint256"
        }
      ],
      "name": "pickRandomFirstWord",
      "outputs": [
        {
          "internalType": "string",
          "name": "",
          "type": "string"
        }
      ],
      "stateMutability": "view",
      "type": "function"
    },
    {
      "inputs": [
        {
          "internalType": "uint256",
          "name": "tokenId",
          "type": "uint256"
        }
      ],
      "name": "pickRandomSecondWord",
      "outputs": [
        {
          "internalType": "string",
          "name": "",
          "type": "string"
        }
      ],
      "stateMutability": "view",
      "type": "function"
    },
    {
      "inputs": [
        {
          "internalType": "uint256",
          "name": "tokenId",
          "type": "uint256"
        }
      ],
      "name": "pickRandomThirdWord",
      "outputs": [
        {
          "internalType": "string",
          "name": "",
          "type": "string"
        }
      ],
      "stateMutability": "view",
      "type": "function"
    },
    {
      "inputs": [
        {
          "internalType": "address",
          "name": "from",
          "type": "address"
        },
        {
          "internalType": "address",
          "name": "to",
          "type": "address"
        },
        {
          "internalType": "uint256",
          "name": "tokenId",
          "type": "uint256"
        }
      ],
      "name": "safeTransferFrom",
      "outputs": [],
      "stateMutability": "nonpayable",
      "type": "function"
    },
    {
      "inputs": [
        {
          "internalType": "address",
          "name": "from",
          "type": "address"
        },
        {
          "internalType": "address",
          "name": "to",
          "type": "address"
        },
        {
          "internalType": "uint256",
          "name": "tokenId",
          "type": "uint256"
        },
        {
          "internalType": "bytes",
          "name": "_data",
          "type": "bytes"
        }
      ],
      "name": "safeTransferFrom",
      "outputs": [],
      "stateMutability": "nonpayable",
      "type": "function"
    },
    {
      "inputs": [
        {
          "internalType": "address",
          "name": "operator",
          "type": "address"
        },
        {
          "internalType": "bool",
          "name": "approved",
          "type": "bool"
        }
      ],
      "name": "setApprovalForAll",
      "outputs": [],
      "stateMutability": "nonpayable",
      "type": "function"
    },
    {
      "inputs": [
        {
          "internalType": "bytes4",
          "name": "interfaceId",
          "type": "bytes4"
        }
      ],
      "name": "supportsInterface",
      "outputs": [
        {
          "internalType": "bool",
          "name": "",
          "type": "bool"
        }
      ],
      "stateMutability": "view",
      "type": "function"
    },
    {
      "inputs": [],
      "name": "symbol",
      "outputs": [
        {
          "internalType": "string",
          "name": "",
          "type": "string"
        }
      ],
      "stateMutability": "view",
      "type": "function"
    },
    {
      "inputs": [
        {
          "internalType": "uint256",
          "name": "tokenId",
          "type": "uint256"
        }
      ],
      "name": "tokenURI",
      "outputs": [
        {
          "internalType": "string",
          "name": "",
          "type": "string"
        }
      ],
      "stateMutability": "view",
      "type": "function"
    },
    {
      "inputs": [
        {
          "internalType": "address",
          "name": "from",
          "type": "address"
        },
        {
          "internalType": "address",
          "name": "to",
          "type": "address"
        },
        {
          "internalType": "uint256",
          "name": "tokenId",
          "type": "uint256"
        }
      ],
      "name": "transferFrom",
      "outputs": [],
      "stateMutability": "nonpayable",
      "type": "function"
    }
  ],
  "bytecode": "0x608060405260405180610100016040528060d38152602001620047bd60d3913960099080519060200190620000369291906200082c565b506040518060800160405280605681526020016200489060569139600a9080519060200190620000689291906200082c565b506040518060c001604052806040518060400160405280600781526020017f416d617a696e670000000000000000000000000000000000000000000000000081525081526020016040518060400160405280600481526020017f457069630000000000000000000000000000000000000000000000000000000081525081526020016040518060400160405280600581526020017f4372617a7900000000000000000000000000000000000000000000000000000081525081526020016040518060400160405280600881526020017f5465727269626c6500000000000000000000000000000000000000000000000081525081526020016040518060400160405280600381526020017f426164000000000000000000000000000000000000000000000000000000000081525081526020016040518060400160405280600981526020017f46616e7461737469630000000000000000000000000000000000000000000000815250815250600b906006620001e6929190620008bd565b506040518060c001604052806040518060400160405280600581526020017f50697a7a6100000000000000000000000000000000000000000000000000000081525081526020016040518060400160405280600881526020017f4269726979616e6900000000000000000000000000000000000000000000000081525081526020016040518060400160405280600781526020017f506f726f7474610000000000000000000000000000000000000000000000000081525081526020016040518060400160405280600681526020017f427572676572000000000000000000000000000000000000000000000000000081525081526020016040518060400160405280600681526020017f4368636b656e000000000000000000000000000000000000000000000000000081525081526020016040518060400160405280600881526020017f5368617761726d61000000000000000000000000000000000000000000000000815250815250600c90600662000364929190620008bd565b506040518060c001604052806040518060400160405280600581526020017f4d6573736900000000000000000000000000000000000000000000000000000081525081526020016040518060400160405280600581526020017f526f68697400000000000000000000000000000000000000000000000000000081525081526020016040518060400160405280600581526020017f4b6f686c6900000000000000000000000000000000000000000000000000000081525081526020016040518060400160405280600781526020017f526f6e616c646f0000000000000000000000000000000000000000000000000081525081526020016040518060400160405280600481526020017f4d6f64690000000000000000000000000000000000000000000000000000000081525081526020016040518060400160405280600881526020017f50696e6172617969000000000000000000000000000000000000000000000000815250815250600d906006620004e2929190620008bd565b506040518060c001604052806040518060400160405280600381526020017f726564000000000000000000000000000000000000000000000000000000000081525081526020016040518060400160405280600781526020017f233038433241380000000000000000000000000000000000000000000000000081525081526020016040518060400160405280600581526020017f626c61636b00000000000000000000000000000000000000000000000000000081525081526020016040518060400160405280600681526020017f79656c6c6f77000000000000000000000000000000000000000000000000000081525081526020016040518060400160405280600481526020017f626c75650000000000000000000000000000000000000000000000000000000081525081526020016040518060400160405280600581526020017f677265656e000000000000000000000000000000000000000000000000000000815250815250600e90600662000660929190620008bd565b503480156200066e57600080fd5b506040518060400160405280600981526020017f5371756172654e465400000000000000000000000000000000000000000000008152506040518060400160405280600681526020017f53515541524500000000000000000000000000000000000000000000000000008152508160009080519060200190620006f39291906200082c565b5080600190805190602001906200070c9291906200082c565b5050506200075a6040518060400160405280601e81526020017f54686973206973206d79204e465420636f6e74726163742e2057686f612100008152506200076060201b620012bd1760201c565b62000ade565b6200080081604051602401620007779190620009f2565b6040516020818303038152906040527f41304fac000000000000000000000000000000000000000000000000000000007bffffffffffffffffffffffffffffffffffffffffffffffffffffffff19166020820180517bffffffffffffffffffffffffffffffffffffffffffffffffffffffff83818316178352505050506200080360201b60201c565b50565b60008151905060006a636f6e736f6c652e6c6f679050602083016000808483855afa5050505050565b8280546200083a9062000a68565b90600052602060002090601f0160209004810192826200085e5760008555620008aa565b82601f106200087957805160ff1916838001178555620008aa565b82800160010185558215620008aa579182015b82811115620008a95782518255916020019190600101906200088c565b5b509050620008b9919062000924565b5090565b82805482825590600052602060002090810192821562000911579160200282015b8281111562000910578251829080519060200190620008ff9291906200082c565b5091602001919060010190620008de565b5b50905062000920919062000943565b5090565b5b808211156200093f57600081600090555060010162000925565b5090565b5b808211156200096757600081816200095d91906200096b565b5060010162000944565b5090565b508054620009799062000a68565b6000825580601f106200098d5750620009ae565b601f016020900490600052602060002090810190620009ad919062000924565b5b50565b6000620009be8262000a16565b620009ca818562000a21565b9350620009dc81856020860162000a32565b620009e78162000acd565b840191505092915050565b6000602082019050818103600083015262000a0e8184620009b1565b905092915050565b600081519050919050565b600082825260208201905092915050565b60005b8381101562000a5257808201518184015260208101905062000a35565b8381111562000a62576000848401525b50505050565b6000600282049050600182168062000a8157607f821691505b6020821081141562000a985762000a9762000a9e565b5b50919050565b7f4e487b7100000000000000000000000000000000000000000000000000000000600052602260045260246000fd5b6000601f19601f8301169050919050565b613ccf8062000aee6000396000f3fe608060405234801561001057600080fd5b50600436106101215760003560e01c80636352211e116100ad578063b88d4fde11610071578063b88d4fde14610340578063c575757a1461035c578063c87b56dd1461038c578063de9d132f146103bc578063e985e9c5146103c657610121565b80636352211e1461027657806370a08231146102a657806395d89b41146102d6578063a22cb465146102f4578063b187301f1461031057610121565b8063095ea7b3116100f4578063095ea7b3146101c257806323b872dd146101de5780632de38d68146101fa57806342842e0e1461022a578063514dc8c61461024657610121565b806301ffc9a714610126578063060475901461015657806306fdde0314610174578063081812fc14610192575b600080fd5b610140600480360381019061013b91906126e9565b6103f6565b60405161014d9190612e75565b60405180910390f35b61015e6104d8565b60405161016b9190613110565b60405180910390f35b61017c6104e2565b6040516101899190612e90565b60405180910390f35b6101ac60048036038101906101a7919061273b565b610574565b6040516101b99190612de5565b60405180910390f35b6101dc60048036038101906101d791906126ad565b6105f9565b005b6101f860048036038101906101f391906125a7565b610711565b005b610214600480360381019061020f919061273b565b610771565b6040516102219190612e90565b60405180910390f35b610244600480360381019061023f91906125a7565b61088f565b005b610260600480360381019061025b919061273b565b6108af565b60405161026d9190612e90565b60405180910390f35b610290600480360381019061028b919061273b565b6109cd565b60405161029d9190612de5565b60405180910390f35b6102c060048036038101906102bb9190612542565b610a7f565b6040516102cd9190613110565b60405180910390f35b6102de610b37565b6040516102eb9190612e90565b60405180910390f35b61030e60048036038101906103099190612671565b610bc9565b005b61032a6004803603810190610325919061273b565b610bdf565b6040516103379190612e90565b60405180910390f35b61035a600480360381019061035591906125f6565b610cfd565b005b6103766004803603810190610371919061273b565b610d5f565b6040516103839190612e90565b60405180910390f35b6103a660048036038101906103a1919061273b565b610e7d565b6040516103b39190612e90565b60405180910390f35b6103c4610fcf565b005b6103e060048036038101906103db919061256b565b611229565b6040516103ed9190612e75565b60405180910390f35b60007f80ac58cd000000000000000000000000000000000000000000000000000000007bffffffffffffffffffffffffffffffffffffffffffffffffffffffff1916827bffffffffffffffffffffffffffffffffffffffffffffffffffffffff191614806104c157507f5b5e139f000000000000000000000000000000000000000000000000000000007bffffffffffffffffffffffffffffffffffffffffffffffffffffffff1916827bffffffffffffffffffffffffffffffffffffffffffffffffffffffff1916145b806104d157506104d082611356565b5b9050919050565b6000600854905090565b6060600080546104f1906133a4565b80601f016020809104026020016040519081016040528092919081815260200182805461051d906133a4565b801561056a5780601f1061053f5761010080835404028352916020019161056a565b820191906000526020600020905b81548152906001019060200180831161054d57829003601f168201915b5050505050905090565b600061057f826113c0565b6105be576040517f08c379a00000000000000000000000000000000000000000000000000000000081526004016105b590613090565b60405180910390fd5b6004600083815260200190815260200160002060009054906101000a900473ffffffffffffffffffffffffffffffffffffffff169050919050565b6000610604826109cd565b90508073ffffffffffffffffffffffffffffffffffffffff168373ffffffffffffffffffffffffffffffffffffffff161415610675576040517f08c379a000000000000000000000000000000000000000000000000000000000815260040161066c906130d0565b60405180910390fd5b8073ffffffffffffffffffffffffffffffffffffffff1661069461142c565b73ffffffffffffffffffffffffffffffffffffffff1614806106c357506106c2816106bd61142c565b611229565b5b610702576040517f08c379a00000000000000000000000000000000000000000000000000000000081526004016106f990612fd0565b60405180910390fd5b61070c8383611434565b505050565b61072261071c61142c565b826114ed565b610761576040517f08c379a0000000000000000000000000000000000000000000000000000000008152600401610758906130f0565b60405180910390fd5b61076c8383836115cb565b505050565b606060006107a561078184611832565b6040516020016107919190612d7f565b6040516020818303038152906040526119df565b9050600b80549050816107b89190613450565b9050600b81815481106107f4577f4e487b7100000000000000000000000000000000000000000000000000000000600052603260045260246000fd5b906000526020600020018054610809906133a4565b80601f0160208091040260200160405190810160405280929190818152602001828054610835906133a4565b80156108825780601f1061085757610100808354040283529160200191610882565b820191906000526020600020905b81548152906001019060200180831161086557829003601f168201915b5050505050915050919050565b6108aa83838360405180602001604052806000815250610cfd565b505050565b606060006108e36108bf84611832565b6040516020016108cf9190612dc3565b6040516020818303038152906040526119df565b9050600e80549050816108f69190613450565b9050600e8181548110610932577f4e487b7100000000000000000000000000000000000000000000000000000000600052603260045260246000fd5b906000526020600020018054610947906133a4565b80601f0160208091040260200160405190810160405280929190818152602001828054610973906133a4565b80156109c05780601f10610995576101008083540402835291602001916109c0565b820191906000526020600020905b8154815290600101906020018083116109a357829003601f168201915b5050505050915050919050565b6000806002600084815260200190815260200160002060009054906101000a900473ffffffffffffffffffffffffffffffffffffffff169050600073ffffffffffffffffffffffffffffffffffffffff168173ffffffffffffffffffffffffffffffffffffffff161415610a76576040517f08c379a0000000000000000000000000000000000000000000000000000000008152600401610a6d90613010565b60405180910390fd5b80915050919050565b60008073ffffffffffffffffffffffffffffffffffffffff168273ffffffffffffffffffffffffffffffffffffffff161415610af0576040517f08c379a0000000000000000000000000000000000000000000000000000000008152600401610ae790612ff0565b60405180910390fd5b600360008373ffffffffffffffffffffffffffffffffffffffff1673ffffffffffffffffffffffffffffffffffffffff168152602001908152602001600020549050919050565b606060018054610b46906133a4565b80601f0160208091040260200160405190810160405280929190818152602001828054610b72906133a4565b8015610bbf5780601f10610b9457610100808354040283529160200191610bbf565b820191906000526020600020905b815481529060010190602001808311610ba257829003601f168201915b5050505050905090565b610bdb610bd461142c565b8383611a12565b5050565b60606000610c13610bef84611832565b604051602001610bff9190612d18565b6040516020818303038152906040526119df565b9050600c8054905081610c269190613450565b9050600c8181548110610c62577f4e487b7100000000000000000000000000000000000000000000000000000000600052603260045260246000fd5b906000526020600020018054610c77906133a4565b80601f0160208091040260200160405190810160405280929190818152602001828054610ca3906133a4565b8015610cf05780601f10610cc557610100808354040283529160200191610cf0565b820191906000526020600020905b815481529060010190602001808311610cd357829003601f168201915b5050505050915050919050565b610d0e610d0861142c565b836114ed565b610d4d576040517f08c379a0000000000000000000000000000000000000000000000000000000008152600401610d44906130f0565b60405180910390fd5b610d5984848484611b7f565b50505050565b60606000610d93610d6f84611832565b604051602001610d7f9190612cf6565b6040516020818303038152906040526119df565b9050600d8054905081610da69190613450565b9050600d8181548110610de2577f4e487b7100000000000000000000000000000000000000000000000000000000600052603260045260246000fd5b906000526020600020018054610df7906133a4565b80601f0160208091040260200160405190810160405280929190818152602001828054610e23906133a4565b8015610e705780601f10610e4557610100808354040283529160200191610e70565b820191906000526020600020905b815481529060010190602001808311610e5357829003601f168201915b5050505050915050919050565b6060610e88826113c0565b610ec7576040517f08c379a0000000000000000000000000000000000000000000000000000000008152600401610ebe90613070565b60405180910390fd5b6000600660008481526020019081526020016000208054610ee7906133a4565b80601f0160208091040260200160405190810160405280929190818152602001828054610f13906133a4565b8015610f605780601f10610f3557610100808354040283529160200191610f60565b820191906000526020600020905b815481529060010190602001808311610f4357829003601f168201915b505050505090506000610f71611bdb565b9050600081511415610f87578192505050610fca565b600082511115610fbc578082604051602001610fa4929190612c58565b60405160208183030381529060405292505050610fca565b610fc584611bf2565b925050505b919050565b60326008541115611015576040517f08c379a000000000000000000000000000000000000000000000000000000000815260040161100c90612f90565b60405180910390fd5b60006110216007611c99565b9050600061102e82610771565b9050600061103b83610bdf565b9050600061104884610d5f565b9050600083838360405160200161106193929190612c7c565b6040516020818303038152906040529050600061107d866108af565b90506000600982600a8560405160200161109a9493929190612cad565b604051602081830303815290604052905060006110df846110ba84611ca7565b6040516020016110cb929190612d3a565b604051602081830303815290604052611ca7565b90506000816040516020016110f49190612da1565b60405160208183030381529060405290506111436040518060400160405280601581526020017f0a2d2d2d2d2d2d2d2d2d2d2d2d2d2d2d2d2d2d2d2d00000000000000000000008152506112bd565b61114c816112bd565b61118a6040518060400160405280601581526020017f2d2d2d2d2d2d2d2d2d2d2d2d2d2d2d2d2d2d2d2d0a00000000000000000000008152506112bd565b611194338a611e65565b61119e8982611e83565b6111c1604051806060016040528060258152602001613c35602591398a33611ef7565b6111cb6007611f96565b6001600860008282546111de91906131d9565b925050819055507febb98688741ffa4c7589bf325de30cf7becb63de567842e1ccdb6cb949fdc82c338a604051611216929190612e4c565b60405180910390a1505050505050505050565b6000600560008473ffffffffffffffffffffffffffffffffffffffff1673ffffffffffffffffffffffffffffffffffffffff16815260200190815260200160002060008373ffffffffffffffffffffffffffffffffffffffff1673ffffffffffffffffffffffffffffffffffffffff16815260200190815260200160002060009054906101000a900460ff16905092915050565b611353816040516024016112d19190612e90565b6040516020818303038152906040527f41304fac000000000000000000000000000000000000000000000000000000007bffffffffffffffffffffffffffffffffffffffffffffffffffffffff19166020820180517bffffffffffffffffffffffffffffffffffffffffffffffffffffffff8381831617835250505050611fac565b50565b60007f01ffc9a7000000000000000000000000000000000000000000000000000000007bffffffffffffffffffffffffffffffffffffffffffffffffffffffff1916827bffffffffffffffffffffffffffffffffffffffffffffffffffffffff1916149050919050565b60008073ffffffffffffffffffffffffffffffffffffffff166002600084815260200190815260200160002060009054906101000a900473ffffffffffffffffffffffffffffffffffffffff1673ffffffffffffffffffffffffffffffffffffffff1614159050919050565b600033905090565b816004600083815260200190815260200160002060006101000a81548173ffffffffffffffffffffffffffffffffffffffff021916908373ffffffffffffffffffffffffffffffffffffffff160217905550808273ffffffffffffffffffffffffffffffffffffffff166114a7836109cd565b73ffffffffffffffffffffffffffffffffffffffff167f8c5be1e5ebec7d5bd14f71427d1e84f3dd0314c0f7b2291e5b200ac8c7c3b92560405160405180910390a45050565b60006114f8826113c0565b611537576040517f08c379a000000000000000000000000000000000000000000000000000000000815260040161152e90612fb0565b60405180910390fd5b6000611542836109cd565b90508073ffffffffffffffffffffffffffffffffffffffff168473ffffffffffffffffffffffffffffffffffffffff16148061158457506115838185611229565b5b806115c257508373ffffffffffffffffffffffffffffffffffffffff166115aa84610574565b73ffffffffffffffffffffffffffffffffffffffff16145b91505092915050565b8273ffffffffffffffffffffffffffffffffffffffff166115eb826109cd565b73ffffffffffffffffffffffffffffffffffffffff1614611641576040517f08c379a000000000000000000000000000000000000000000000000000000000815260040161163890612f10565b60405180910390fd5b600073ffffffffffffffffffffffffffffffffffffffff168273ffffffffffffffffffffffffffffffffffffffff1614156116b1576040517f08c379a00000000000000000000000000000000000000000000000000000000081526004016116a890612f50565b60405180910390fd5b6116bc838383611fd5565b6116c7600082611434565b6001600360008573ffffffffffffffffffffffffffffffffffffffff1673ffffffffffffffffffffffffffffffffffffffff168152602001908152602001600020600082825461171791906132ba565b925050819055506001600360008473ffffffffffffffffffffffffffffffffffffffff1673ffffffffffffffffffffffffffffffffffffffff168152602001908152602001600020600082825461176e91906131d9565b92505081905550816002600083815260200190815260200160002060006101000a81548173ffffffffffffffffffffffffffffffffffffffff021916908373ffffffffffffffffffffffffffffffffffffffff160217905550808273ffffffffffffffffffffffffffffffffffffffff168473ffffffffffffffffffffffffffffffffffffffff167fddf252ad1be2c89b69c2b068fc378daa952ba7f163c4a11628f55a4df523b3ef60405160405180910390a461182d838383611fda565b505050565b6060600082141561187a576040518060400160405280600181526020017f300000000000000000000000000000000000000000000000000000000000000081525090506119da565b600082905060005b600082146118ac57808061189590613407565b915050600a826118a5919061322f565b9150611882565b60008167ffffffffffffffff8111156118ee577f4e487b7100000000000000000000000000000000000000000000000000000000600052604160045260246000fd5b6040519080825280601f01601f1916602001820160405280156119205781602001600182028036833780820191505090505b5090505b600085146119d35760018261193991906132ba565b9150600a856119489190613450565b603061195491906131d9565b60f81b818381518110611990577f4e487b7100000000000000000000000000000000000000000000000000000000600052603260045260246000fd5b60200101907effffffffffffffffffffffffffffffffffffffffffffffffffffffffffffff1916908160001a905350600a856119cc919061322f565b9450611924565b8093505050505b919050565b6000816040516020016119f29190612c41565b6040516020818303038152906040528051906020012060001c9050919050565b8173ffffffffffffffffffffffffffffffffffffffff168373ffffffffffffffffffffffffffffffffffffffff161415611a81576040517f08c379a0000000000000000000000000000000000000000000000000000000008152600401611a7890612f70565b60405180910390fd5b80600560008573ffffffffffffffffffffffffffffffffffffffff1673ffffffffffffffffffffffffffffffffffffffff16815260200190815260200160002060008473ffffffffffffffffffffffffffffffffffffffff1673ffffffffffffffffffffffffffffffffffffffff16815260200190815260200160002060006101000a81548160ff0219169083151502179055508173ffffffffffffffffffffffffffffffffffffffff168373ffffffffffffffffffffffffffffffffffffffff167f17307eab39ab6107e8899845ad3d59bd9653f200f220920489ca2b5937696c3183604051611b729190612e75565b60405180910390a3505050565b611b8a8484846115cb565b611b9684848484611fdf565b611bd5576040517f08c379a0000000000000000000000000000000000000000000000000000000008152600401611bcc90612ef0565b60405180910390fd5b50505050565b606060405180602001604052806000815250905090565b6060611bfd826113c0565b611c3c576040517f08c379a0000000000000000000000000000000000000000000000000000000008152600401611c33906130b0565b60405180910390fd5b6000611c46611bdb565b90506000815111611c665760405180602001604052806000815250611c91565b80611c7084611832565b604051602001611c81929190612c58565b6040516020818303038152906040525b915050919050565b600081600001549050919050565b60606000825190506000811415611cd05760405180602001604052806000815250915050611e60565b60006003600283611ce191906131d9565b611ceb919061322f565b6004611cf79190613260565b90506000602082611d0891906131d9565b67ffffffffffffffff811115611d47577f4e487b7100000000000000000000000000000000000000000000000000000000600052604160045260246000fd5b6040519080825280601f01601f191660200182016040528015611d795781602001600182028036833780820191505090505b5090506000604051806060016040528060408152602001613c5a604091399050600181016020830160005b86811015611e1d5760038101905062ffffff818a015116603f8160121c168401518060081b905060ff603f83600c1c1686015116810190508060081b905060ff603f8360061c1686015116810190508060081b905060ff603f831686015116810190508060e01b90508084526004840193505050611da4565b506003860660018114611e375760028114611e4757611e52565b613d3d60f01b6002830352611e52565b603d60f81b60018303525b508484525050819450505050505b919050565b611e7f828260405180602001604052806000815250612176565b5050565b611e8c826113c0565b611ecb576040517f08c379a0000000000000000000000000000000000000000000000000000000008152600401611ec290613030565b60405180910390fd5b80600660008481526020019081526020016000209080519060200190611ef29291906123ce565b505050565b611f91838383604051602401611f0f93929190612eb2565b6040516020818303038152906040527fe3849f79000000000000000000000000000000000000000000000000000000007bffffffffffffffffffffffffffffffffffffffffffffffffffffffff19166020820180517bffffffffffffffffffffffffffffffffffffffffffffffffffffffff8381831617835250505050611fac565b505050565b6001816000016000828254019250508190555050565b60008151905060006a636f6e736f6c652e6c6f679050602083016000808483855afa5050505050565b505050565b505050565b60006120008473ffffffffffffffffffffffffffffffffffffffff166121d1565b15612169578373ffffffffffffffffffffffffffffffffffffffff1663150b7a0261202961142c565b8786866040518563ffffffff1660e01b815260040161204b9493929190612e00565b602060405180830381600087803b15801561206557600080fd5b505af192505050801561209657506040513d601f19601f820116820180604052508101906120939190612712565b60015b612119573d80600081146120c6576040519150601f19603f3d011682016040523d82523d6000602084013e6120cb565b606091505b50600081511415612111576040517f08c379a000000000000000000000000000000000000000000000000000000000815260040161210890612ef0565b60405180910390fd5b805181602001fd5b63150b7a0260e01b7bffffffffffffffffffffffffffffffffffffffffffffffffffffffff1916817bffffffffffffffffffffffffffffffffffffffffffffffffffffffff19161491505061216e565b600190505b949350505050565b61218083836121f4565b61218d6000848484611fdf565b6121cc576040517f08c379a00000000000000000000000000000000000000000000000000000000081526004016121c390612ef0565b60405180910390fd5b505050565b6000808273ffffffffffffffffffffffffffffffffffffffff163b119050919050565b600073ffffffffffffffffffffffffffffffffffffffff168273ffffffffffffffffffffffffffffffffffffffff161415612264576040517f08c379a000000000000000000000000000000000000000000000000000000000815260040161225b90613050565b60405180910390fd5b61226d816113c0565b156122ad576040517f08c379a00000000000000000000000000000000000000000000000000000000081526004016122a490612f30565b60405180910390fd5b6122b960008383611fd5565b6001600360008473ffffffffffffffffffffffffffffffffffffffff1673ffffffffffffffffffffffffffffffffffffffff168152602001908152602001600020600082825461230991906131d9565b92505081905550816002600083815260200190815260200160002060006101000a81548173ffffffffffffffffffffffffffffffffffffffff021916908373ffffffffffffffffffffffffffffffffffffffff160217905550808273ffffffffffffffffffffffffffffffffffffffff16600073ffffffffffffffffffffffffffffffffffffffff167fddf252ad1be2c89b69c2b068fc378daa952ba7f163c4a11628f55a4df523b3ef60405160405180910390a46123ca60008383611fda565b5050565b8280546123da906133a4565b90600052602060002090601f0160209004810192826123fc5760008555612443565b82601f1061241557805160ff1916838001178555612443565b82800160010185558215612443579182015b82811115612442578251825591602001919060010190612427565b5b5090506124509190612454565b5090565b5b8082111561246d576000816000905550600101612455565b5090565b600061248461247f84613150565b61312b565b90508281526020810184848401111561249c57600080fd5b6124a7848285613362565b509392505050565b6000813590506124be81613bd8565b92915050565b6000813590506124d381613bef565b92915050565b6000813590506124e881613c06565b92915050565b6000815190506124fd81613c06565b92915050565b600082601f83011261251457600080fd5b8135612524848260208601612471565b91505092915050565b60008135905061253c81613c1d565b92915050565b60006020828403121561255457600080fd5b6000612562848285016124af565b91505092915050565b6000806040838503121561257e57600080fd5b600061258c858286016124af565b925050602061259d858286016124af565b9150509250929050565b6000806000606084860312156125bc57600080fd5b60006125ca868287016124af565b93505060206125db868287016124af565b92505060406125ec8682870161252d565b9150509250925092565b6000806000806080858703121561260c57600080fd5b600061261a878288016124af565b945050602061262b878288016124af565b935050604061263c8782880161252d565b925050606085013567ffffffffffffffff81111561265957600080fd5b61266587828801612503565b91505092959194509250565b6000806040838503121561268457600080fd5b6000612692858286016124af565b92505060206126a3858286016124c4565b9150509250929050565b600080604083850312156126c057600080fd5b60006126ce858286016124af565b92505060206126df8582860161252d565b9150509250929050565b6000602082840312156126fb57600080fd5b6000612709848285016124d9565b91505092915050565b60006020828403121561272457600080fd5b6000612732848285016124ee565b91505092915050565b60006020828403121561274d57600080fd5b600061275b8482850161252d565b91505092915050565b61276d816132ee565b82525050565b61277c81613300565b82525050565b600061278d82613196565b61279781856131ac565b93506127a7818560208601613371565b6127b08161353d565b840191505092915050565b60006127c6826131a1565b6127d081856131bd565b93506127e0818560208601613371565b6127e98161353d565b840191505092915050565b60006127ff826131a1565b61280981856131ce565b9350612819818560208601613371565b80840191505092915050565b60008154612832816133a4565b61283c81866131ce565b9450600182166000811461285757600181146128685761289b565b60ff1983168652818601935061289b565b61287185613181565b60005b8381101561289357815481890152600182019150602081019050612874565b838801955050505b50505092915050565b60006128b16032836131bd565b91506128bc8261354e565b604082019050919050565b60006128d46025836131bd565b91506128df8261359d565b604082019050919050565b60006128f7601c836131bd565b9150612902826135ec565b602082019050919050565b600061291a600a836131ce565b915061292582613615565b600a82019050919050565b600061293d6024836131bd565b91506129488261363e565b604082019050919050565b60006129606019836131bd565b915061296b8261368d565b602082019050919050565b60006129836063836131ce565b915061298e826136b6565b606382019050919050565b60006129a6600d836131bd565b91506129b182613751565b602082019050919050565b60006129c9600b836131ce565b91506129d48261377a565b600b82019050919050565b60006129ec602c836131bd565b91506129f7826137a3565b604082019050919050565b6000612a0f600d836131ce565b9150612a1a826137f2565b600d82019050919050565b6000612a326038836131bd565b9150612a3d8261381b565b604082019050919050565b6000612a55602a836131bd565b9150612a608261386a565b604082019050919050565b6000612a786029836131bd565b9150612a83826138b9565b604082019050919050565b6000612a9b602e836131bd565b9150612aa682613908565b604082019050919050565b6000612abe6002836131ce565b9150612ac982613957565b600282019050919050565b6000612ae16020836131bd565b9150612aec82613980565b602082019050919050565b6000612b046031836131bd565b9150612b0f826139a9565b604082019050919050565b6000612b27602c836131bd565b9150612b32826139f8565b604082019050919050565b6000612b4a602f836131bd565b9150612b5582613a47565b604082019050919050565b6000612b6d600a836131ce565b9150612b7882613a96565b600a82019050919050565b6000612b906021836131bd565b9150612b9b82613abf565b604082019050919050565b6000612bb3600a836131ce565b9150612bbe82613b0e565b600a82019050919050565b6000612bd6601d836131ce565b9150612be182613b37565b601d82019050919050565b6000612bf96031836131bd565b9150612c0482613b60565b604082019050919050565b6000612c1c6005836131ce565b9150612c2782613baf565b600582019050919050565b612c3b81613358565b82525050565b6000612c4d82846127f4565b915081905092915050565b6000612c6482856127f4565b9150612c7082846127f4565b91508190509392505050565b6000612c8882866127f4565b9150612c9482856127f4565b9150612ca082846127f4565b9150819050949350505050565b6000612cb98287612825565b9150612cc582866127f4565b9150612cd18285612825565b9150612cdd82846127f4565b9150612ce882612a02565b915081905095945050505050565b6000612d018261290d565b9150612d0d82846127f4565b915081905092915050565b6000612d23826129bc565b9150612d2f82846127f4565b915081905092915050565b6000612d4582612b60565b9150612d5182856127f4565b9150612d5c82612976565b9150612d6882846127f4565b9150612d7382612ab1565b91508190509392505050565b6000612d8a82612ba6565b9150612d9682846127f4565b915081905092915050565b6000612dac82612bc9565b9150612db882846127f4565b915081905092915050565b6000612dce82612c0f565b9150612dda82846127f4565b915081905092915050565b6000602082019050612dfa6000830184612764565b92915050565b6000608082019050612e156000830187612764565b612e226020830186612764565b612e2f6040830185612c32565b8181036060830152612e418184612782565b905095945050505050565b6000604082019050612e616000830185612764565b612e6e6020830184612c32565b9392505050565b6000602082019050612e8a6000830184612773565b92915050565b60006020820190508181036000830152612eaa81846127bb565b905092915050565b60006060820190508181036000830152612ecc81866127bb565b9050612edb6020830185612c32565b612ee86040830184612764565b949350505050565b60006020820190508181036000830152612f09816128a4565b9050919050565b60006020820190508181036000830152612f29816128c7565b9050919050565b60006020820190508181036000830152612f49816128ea565b9050919050565b60006020820190508181036000830152612f6981612930565b9050919050565b60006020820190508181036000830152612f8981612953565b9050919050565b60006020820190508181036000830152612fa981612999565b9050919050565b60006020820190508181036000830152612fc9816129df565b9050919050565b60006020820190508181036000830152612fe981612a25565b9050919050565b6000602082019050818103600083015261300981612a48565b9050919050565b6000602082019050818103600083015261302981612a6b565b9050919050565b6000602082019050818103600083015261304981612a8e565b9050919050565b6000602082019050818103600083015261306981612ad4565b9050919050565b6000602082019050818103600083015261308981612af7565b9050919050565b600060208201905081810360008301526130a981612b1a565b9050919050565b600060208201905081810360008301526130c981612b3d565b9050919050565b600060208201905081810360008301526130e981612b83565b9050919050565b6000602082019050818103600083015261310981612bec565b9050919050565b60006020820190506131256000830184612c32565b92915050565b6000613135613146565b905061314182826133d6565b919050565b6000604051905090565b600067ffffffffffffffff82111561316b5761316a61350e565b5b6131748261353d565b9050602081019050919050565b60008190508160005260206000209050919050565b600081519050919050565b600081519050919050565b600082825260208201905092915050565b600082825260208201905092915050565b600081905092915050565b60006131e482613358565b91506131ef83613358565b9250827fffffffffffffffffffffffffffffffffffffffffffffffffffffffffffffffff0382111561322457613223613481565b5b828201905092915050565b600061323a82613358565b915061324583613358565b925082613255576132546134b0565b5b828204905092915050565b600061326b82613358565b915061327683613358565b9250817fffffffffffffffffffffffffffffffffffffffffffffffffffffffffffffffff04831182151516156132af576132ae613481565b5b828202905092915050565b60006132c582613358565b91506132d083613358565b9250828210156132e3576132e2613481565b5b828203905092915050565b60006132f982613338565b9050919050565b60008115159050919050565b60007fffffffff0000000000000000000000000000000000000000000000000000000082169050919050565b600073ffffffffffffffffffffffffffffffffffffffff82169050919050565b6000819050919050565b82818337600083830152505050565b60005b8381101561338f578082015181840152602081019050613374565b8381111561339e576000848401525b50505050565b600060028204905060018216806133bc57607f821691505b602082108114156133d0576133cf6134df565b5b50919050565b6133df8261353d565b810181811067ffffffffffffffff821117156133fe576133fd61350e565b5b80604052505050565b600061341282613358565b91507fffffffffffffffffffffffffffffffffffffffffffffffffffffffffffffffff82141561344557613444613481565b5b600182019050919050565b600061345b82613358565b915061346683613358565b925082613476576134756134b0565b5b828206905092915050565b7f4e487b7100000000000000000000000000000000000000000000000000000000600052601160045260246000fd5b7f4e487b7100000000000000000000000000000000000000000000000000000000600052601260045260246000fd5b7f4e487b7100000000000000000000000000000000000000000000000000000000600052602260045260246000fd5b7f4e487b7100000000000000000000000000000000000000000000000000000000600052604160045260246000fd5b6000601f19601f8301169050919050565b7f4552433732313a207472616e7366657220746f206e6f6e20455243373231526560008201527f63656976657220696d706c656d656e7465720000000000000000000000000000602082015250565b7f4552433732313a207472616e736665722066726f6d20696e636f72726563742060008201527f6f776e6572000000000000000000000000000000000000000000000000000000602082015250565b7f4552433732313a20746f6b656e20616c7265616479206d696e74656400000000600082015250565b7f54484952445f574f524400000000000000000000000000000000000000000000600082015250565b7f4552433732313a207472616e7366657220746f20746865207a65726f2061646460008201527f7265737300000000000000000000000000000000000000000000000000000000602082015250565b7f4552433732313a20617070726f766520746f2063616c6c657200000000000000600082015250565b7f222c20226465736372697074696f6e223a20224120686967686c79206163636c60008201527f61696d656420636f6c6c656374696f6e206f6620737175617265732e222c202260208201527f696d616765223a2022646174613a696d6167652f7376672b786d6c3b6261736560408201527f36342c0000000000000000000000000000000000000000000000000000000000606082015250565b7f4c696d6974207265616368656400000000000000000000000000000000000000600082015250565b7f5345434f4e445f574f5244000000000000000000000000000000000000000000600082015250565b7f4552433732313a206f70657261746f7220717565727920666f72206e6f6e657860008201527f697374656e7420746f6b656e0000000000000000000000000000000000000000602082015250565b7f3c2f746578743e3c2f7376673e00000000000000000000000000000000000000600082015250565b7f4552433732313a20617070726f76652063616c6c6572206973206e6f74206f7760008201527f6e6572206e6f7220617070726f76656420666f7220616c6c0000000000000000602082015250565b7f4552433732313a2062616c616e636520717565727920666f7220746865207a6560008201527f726f206164647265737300000000000000000000000000000000000000000000602082015250565b7f4552433732313a206f776e657220717565727920666f72206e6f6e657869737460008201527f656e7420746f6b656e0000000000000000000000000000000000000000000000602082015250565b7f45524337323155524953746f726167653a2055524920736574206f66206e6f6e60008201527f6578697374656e7420746f6b656e000000000000000000000000000000000000602082015250565b7f227d000000000000000000000000000000000000000000000000000000000000600082015250565b7f4552433732313a206d696e7420746f20746865207a65726f2061646472657373600082015250565b7f45524337323155524953746f726167653a2055524920717565727920666f722060008201527f6e6f6e6578697374656e7420746f6b656e000000000000000000000000000000602082015250565b7f4552433732313a20617070726f76656420717565727920666f72206e6f6e657860008201527f697374656e7420746f6b656e0000000000000000000000000000000000000000602082015250565b7f4552433732314d657461646174613a2055524920717565727920666f72206e6f60008201527f6e6578697374656e7420746f6b656e0000000000000000000000000000000000602082015250565b7f7b226e616d65223a202200000000000000000000000000000000000000000000600082015250565b7f4552433732313a20617070726f76616c20746f2063757272656e74206f776e6560008201527f7200000000000000000000000000000000000000000000000000000000000000602082015250565b7f46495253545f574f524400000000000000000000000000000000000000000000600082015250565b7f646174613a6170706c69636174696f6e2f6a736f6e3b6261736536342c000000600082015250565b7f4552433732313a207472616e736665722063616c6c6572206973206e6f74206f60008201527f776e6572206e6f7220617070726f766564000000000000000000000000000000602082015250565b7f434f4c4f52000000000000000000000000000000000000000000000000000000600082015250565b613be1816132ee565b8114613bec57600080fd5b50565b613bf881613300565b8114613c0357600080fd5b50565b613c0f8161330c565b8114613c1a57600080fd5b50565b613c2681613358565b8114613c3157600080fd5b5056fe416e204e465420772f20494420257320686173206265656e206d696e74656420746f2025734142434445464748494a4b4c4d4e4f505152535455565758595a6162636465666768696a6b6c6d6e6f707172737475767778797a303132333435363738392b2fa2646970667358221220a638b2efb1497e7a2296fb0096361d6246d52568fafd0c3b2aa4862c4830e42d64736f6c634300080100333c73766720786d6c6e733d27687474703a2f2f7777772e77332e6f72672f323030302f73766727207072657365727665417370656374526174696f3d27784d696e594d696e206d656574272076696577426f783d273020302033353020333530273e3c7374796c653e2e62617365207b2066696c6c3a2077686974653b20666f6e742d66616d696c793a2073657269663b20666f6e742d73697a653a20323470783b207d3c2f7374796c653e3c726563742077696474683d273130302527206865696768743d2731303025272066696c6c3d27272f3e3c7465787420783d273530252720793d273530252720636c6173733d27626173652720646f6d696e616e742d626173656c696e653d276d6964646c652720746578742d616e63686f723d276d6964646c65273e",
  "linkReferences": {},
  "deployedLinkReferences": {}
}